:020000040800F2
:10000000005000209D950008399400083D94000898
:10001000419400084594000849940008000000003D
:100020000000000000000000000000004D940008E7
:1000300051940008000000005594000859940008ED
:10004000E5950008E5950008E5950008E5950008A8
:10005000E5950008E5950008E59500087971000828
:10006000E595000891710008E5950008E595000800
:10007000E5950008E5950008E5950008E595000878
:10008000E5950008E5950008E5950008E595000868
:10009000E5950008E5950008E5950008E595000858
:1000A000E5950008E5950008E5950008E595000848
:1000B000E595000869940008E5950008E5950008B5
:1000C000E5950008E5950008E5950008E595000828
:1000D000E5950008E5950008E5950008E595000818
:1000E000E5950008E5950008E5950008000000008A
:1000F0000000000000000000000000000000000000
:0C01000000000000000000005FF808F1A3
:1001100010B5054C237833B9044B13B10448AFF341
:1001200000800123237010BD200400200000000087
:1001300018A4000808B5034B1BB103490348AFF3EB
:10014000008008BD000000002404002018A400085E
:1001500081F0004102E000BF83F0004330B54FEA78
:1001600041044FEA430594EA050F08BF90EA020FE5
:100170001FBF54EA000C55EA020C7FEA645C7FEA78
:10018000655C00F0E2804FEA5454D4EB5555B8BF9B
:100190006D420CDD2C4480EA020281EA030382EA0C
:1001A000000083EA010180EA020281EA0303362D9E
:1001B00088BF30BD11F0004F4FEA01314FF4801C71
:1001C0004CEA113102D0404261EB410113F0004F83
:1001D0004FEA03334CEA133302D0524263EB43033A
:1001E00094EA050F00F0A780A4F10104D5F1200ED8
:1001F0000DDB02FA0EFC22FA05F2801841F1000133
:1002000003FA0EF2801843FA05F359410EE0A5F106
:1002100020050EF1200E012A03FA0EFC28BF4CF037
:10022000020C43FA05F3C01851EBE37101F00045ED
:1002300007D54FF0000EDCF1000C7EEB00006EEBFA
:100240000101B1F5801F1BD3B1F5001F0CD3490884
:100250005FEA30004FEA3C0C04F101044FEA4452DB
:1002600012F5800F80F09A80BCF1004F08BF5FEA62
:10027000500C50F1000041EB045141EA050130BD42
:100280005FEA4C0C404141EB010111F4801FA4F1E5
:100290000104E9D191F0000F04BF01460020B1FA3A
:1002A00081F308BF2033A3F10B03B3F120020CDA72
:1002B0000C3208DD02F1140CC2F10C0201FA0CF050
:1002C00021FA02F10CE002F11402D8BFC2F1200CB5
:1002D00001FA02F120FA0CFCDCBF41EA0C0190406B
:1002E000E41AA2BF01EB0451294330BD6FEA0404B4
:1002F0001F3C1CDA0C340EDC04F11404C4F120029F
:1003000020FA04F001FA02F340EA030021FA04F3B0
:1003100045EA030130BDC4F10C04C4F1200220FA07
:1003200002F001FA04F340EA0300294630BD21FA45
:1003300004F0294630BD94F0000F83F4801306BF0B
:1003400081F480110134013D4EE77FEA645C18BFFF
:100350007FEA655C29D094EA050F08BF90EA020F96
:1003600005D054EA000C04BF1946104630BD91EA8E
:10037000030F1EBF0021002030BD5FEA545C05D191
:100380004000494128BF41F0004130BD14F58004D0
:100390003CBF01F5801130BD01F0004545F0FE4144
:1003A00041F470014FF0000030BD7FEA645C1ABF79
:1003B000194610467FEA655C1CBF0B46024650EAB0
:1003C000013406BF52EA033591EA030F41F40021DC
:1003D00030BD00BF90F0000F04BF0021704730B562
:1003E0004FF4806404F132044FF000054FF0000137
:1003F00050E700BF90F0000F04BF0021704730B5F8
:100400004FF4806404F1320410F0004548BF4042CC
:100410004FF000013EE700BF42004FEAE2014FEA21
:1004200031014FEA02701FBF12F07F4393F07F4FFC
:1004300081F06051704732F07F4208BF704793F0FF
:100440007F4F04BF41F40021704730B54FF4607412
:1004500001F0004521F000411CE700BF50EA010215
:1004600008BF704730B54FF000050AE050EA0102BE
:1004700008BF704730B511F0004502D5404261EB2E
:1004800041014FF4806404F132045FEA915C3FF46F
:10049000D8AE4FF003025FEADC0C18BF03325FEA0C
:1004A000DC0C18BF033202EBDC02C2F1200300FABD
:1004B00003FC20FA02F001FA03FE40EA0E0021FAE2
:1004C00002F11444BDE600BF70B54FF0FF0C4CF4D0
:1004D000E06C1CEA11541DBF1CEA135594EA0C0F82
:1004E00095EA0C0F00F0DEF82C4481EA030621EABD
:1004F0004C5123EA4C5350EA013518BF52EA0335F8
:1005000041F4801143F4801338D0A0FB02CE4FF0A9
:100510000005E1FB02E506F00042E0FB03E54FF0D9
:100520000006E1FB03569CF0000F18BF4EF0010ED1
:10053000A4F1FF04B6F5007F64F5407404D25FEACD
:100540004E0E6D4146EB060642EAC62141EA555180
:100550004FEAC52040EA5E504FEACE2EB4F1FD0CC2
:1005600088BFBCF5E06F1ED8BEF1004F08BF5FEA40
:10057000500E50F1000041EB045170BD06F00046F2
:1005800046EA010140EA020081EA0301B4EB5C049F
:10059000C2BFD4EB0C0541EA045170BD41F4801197
:1005A0004FF0000E013C00F3AB8014F1360FDEBFBC
:1005B000002001F0004170BDC4F10004203C35DA98
:1005C0000C341BDC04F11404C4F1200500FA05F31B
:1005D00020FA04F001FA05F240EA020001F00042BC
:1005E00021F0004110EBD37021FA04F642EB060132
:1005F0005EEA430E08BF20EAD37070BDC4F10C045C
:10060000C4F1200500FA04F320FA05F001FA04F21F
:1006100040EA020001F0004110EBD37041F100010B
:100620005EEA430E08BF20EAD37070BDC4F1200516
:1006300000FA05F24EEA020E20FA04F301FA05F27E
:1006400043EA020321FA04F001F0004121FA04F226
:1006500020EA020000EBD3705EEA430E08BF20EAF6
:10066000D37070BD94F0000F0FD101F00046400030
:1006700041EB010111F4801F08BF013CF7D041EAB2
:10068000060195F0000F18BF704703F000465200B6
:1006900043EB030313F4801F08BF013DF7D043EA87
:1006A0000603704794EA0C0F0CEA135518BF95EA3D
:1006B0000C0F0CD050EA410618BF52EA4306D1D1C4
:1006C00081EA030101F000414FF0000070BD50EAE3
:1006D000410606BF1046194652EA430619D094EA6D
:1006E0000C0F02D150EA013613D195EA0C0F05D157
:1006F00052EA03361CBF104619460AD181EA0301AB
:1007000001F0004141F0FE4141F470014FF0000062
:1007100070BD41F0FE4141F4780170BD70B54FF0FD
:10072000FF0C4CF4E06C1CEA11541DBF1CEA13557D
:1007300094EA0C0F95EA0C0F00F0A7F8A4EB05045F
:1007400081EA030E52EA03354FEA013100F0888056
:100750004FEA03334FF0805545EA131343EA12631F
:100760004FEA022245EA111545EA10654FEA0026D4
:100770000EF000419D4208BF964244F1FD0404F58D
:10078000407402D25B084FEA3202B61A65EB0305E9
:100790005B084FEA32024FF480104FF4002CB6EBA6
:1007A000020E75EB030E22BFB61A754640EA0C0026
:1007B0005B084FEA3202B6EB020E75EB030E22BF66
:1007C000B61A754640EA5C005B084FEA3202B6EBA7
:1007D000020E75EB030E22BFB61A754640EA9C0066
:1007E0005B084FEA3202B6EB020E75EB030E22BF36
:1007F000B61A754640EADC0055EA060E18D04FEAF4
:10080000051545EA16754FEA06164FEAC30343EA93
:1008100052734FEAC2025FEA1C1CC0D111F4801F60
:100820000BD141EA00014FF000004FF0004CB6E759
:1008300011F4801F04BF01430020B4F1FD0C88BFF8
:10084000BCF5E06F3FF6AFAEB5EB030C04BFB6EB03
:10085000020C5FEA500C50F1000041EB045170BDF6
:100860000EF0004E4EEA113114EB5C04C2BFD4EB23
:100870000C0541EA045170BD41F480114FF0000EA7
:10088000013C90E645EA060E8DE60CEA135594EA23
:100890000C0F08BF95EA0C0F3FF43BAF94EA0C0F26
:1008A0000AD150EA01347FF434AF95EA0C0F7FF49B
:1008B00025AF104619462CE795EA0C0F06D152EAEF
:1008C00003353FF4FDAE1046194622E750EA4106D3
:1008D00018BF52EA43067FF4C5AE50EA41047FF4E4
:1008E0000DAF52EA43057FF4EBAE12E74FF0FF3C49
:1008F00006E000BF4FF0010C02E000BF4FF0010C1A
:100900004DF804CD4FEA410C7FEA6C5C4FEA430C92
:1009100018BF7FEA6C5C1BD001B050EA410C0CBFE1
:1009200052EA430C91EA030F02BF90EA020F002043
:10093000704710F1000F91EA030F58BF994208BFAA
:1009400090422CBFD8176FEAE37040F00100704767
:100950004FEA410C7FEA6C5C02D150EA013C07D1BE
:100960004FEA430C7FEA6C5CD6D152EA033CD3D009
:100970005DF8040B704700BF8446104662468C4603
:100980001946634600E000BF01B5FFF7B7FF002836
:1009900048BF10F1000F01BD4DF808EDFFF7F4FF5F
:1009A0000CBF012000205DF808FB00BF4DF808EDEA
:1009B000FFF7EAFF34BF012000205DF808FB00BF0D
:1009C0004DF808EDFFF7E0FF94BF012000205DF82F
:1009D00008FB00BF4DF808EDFFF7CEFF94BF0120E4
:1009E00000205DF808FB00BF4DF808EDFFF7C4FFDD
:1009F00034BF012000205DF808FB00BF4FEA410C26
:100A00007FEA6C5C02D150EA013C0AD14FEA430C08
:100A10007FEA6C5C02D152EA033C02D14FF0000045
:100A200070474FF0010070474FEA410212F5001283
:100A300015D211D56FF47873B3EB625212D94FEA25
:100A4000C12343F0004343EA505311F0004F23FA0F
:100A500002F018BF404270474FF00000704750EA64
:100A6000013005D111F0004008BF6FF00040704721
:100A70004FF00000704700BF4A0011D212F500127B
:100A800011D20DD56FF47873B3EB62520ED44FEAE6
:100A9000C12343F0004343EA505323FA02F0704766
:100AA0004FF00000704750EA013002D14FF0FF30A4
:100AB00070474FF0000070474FEA4102B2F1E04347
:100AC00024BFB3F5001CDCF1FE5C0DD901F0004C35
:100AD0004FEAC0024CEA5070B2F1004F40EB830085
:100AE00008BF20F00100704711F0804F21D113F1B1
:100AF0003872BCBF01F00040704741F480114FEAEA
:100B00005252C2F11802C2F1200C10FA0CF320FA72
:100B100002F018BF40F001004FEAC1234FEAD3238F
:100B200003FA0CFC40EA0C0023FA02F34FEA4303F9
:100B3000CCE77FEA625307D150EA01331EBF4FF082
:100B4000FE4040F44000704701F0004040F0FE409D
:100B500040F40000704700BF80F0004002E000BF9A
:100B600081F0004142001FBF5FEA410392EA030F98
:100B70007FEA226C7FEA236C6AD04FEA1262D2EBE2
:100B80001363C1BFD218414048404140B8BF5B42E7
:100B9000192B88BF704710F0004F40F4000020F080
:100BA0007F4018BF404211F0004F41F4000121F096
:100BB0007F4118BF494292EA030F3FD0A2F10102E0
:100BC00041FA03FC10EB0C00C3F1200301FA03F11E
:100BD00000F0004302D5494260EB4000B0F5000F41
:100BE00013D3B0F1807F06D340084FEA310102F100
:100BF0000102FE2A51D2B1F1004F40EBC25008BFB2
:100C000020F0010040EA03007047490040EB00007B
:100C100010F4000FA2F10102EDD1B0FA80FCACF1AA
:100C2000080CB2EB0C0200FA0CF0AABF00EBC250A9
:100C300052421843BCBFD0401843704792F0000F97
:100C400081F4000106BF80F400000132013BB5E7EA
:100C50004FEA41037FEA226C18BF7FEA236C21D060
:100C600092EA030F04D092F0000F08BF08467047C5
:100C700090EA010F1CBF0020704712F07F4F04D193
:100C8000400028BF40F00040704712F100723CBFA6
:100C900000F50000704700F0004343F0FE4040F4D0
:100CA000000070477FEA226216BF08467FEA23638E
:100CB0000146420206BF5FEA412390EA010F40F479
:100CC000800070474FF0000304E000BF10F00043C5
:100CD00048BF40425FEA000C08BF704743F09643AC
:100CE00001464FF000001CE050EA010208BF7047C7
:100CF0004FF000030AE000BF50EA010208BF70474E
:100D000011F0004302D5404261EB41015FEA010C62
:100D100002BF84460146002043F0B64308BFA3F15A
:100D20008053A3F50003BCFA8CF2083AA3EBC2533C
:100D300010DB01FA02FC634400FA02FCC2F120025B
:100D4000BCF1004F20FA02F243EB020008BF20F092
:100D50000100704702F1200201FA02FCC2F12002F8
:100D600050EA4C0021FA02F243EB020008BF20EAED
:100D7000DC7070474FF0FF0C1CEAD0521EBF1CEA1B
:100D8000D15392EA0C0F93EA0C0F6FD01A4480EA09
:100D9000010C400218BF5FEA41211ED04FF00063F2
:100DA00043EA501043EA5111A0FB01310CF000401E
:100DB000B1F5000F3EBF490041EAD3715B0040EA44
:100DC000010062F17F02FD2A1DD8B3F1004F40EB14
:100DD000C25008BF20F00100704790F0000F0CF0E7
:100DE000004C08BF49024CEA502040EA51207F3AAB
:100DF000C2BFD2F1FF0340EAC250704740F4000086
:100E00004FF00003013A5DDC12F1190FDCBF00F076
:100E100000407047C2F10002410021FA02F1C2F124
:100E2000200200FA02FC5FEA310040F1000053EAC0
:100E30004C0308BF20EADC70704792F0000F00F00E
:100E4000004C02BF400010F4000F013AF9D040EA14
:100E50000C0093F0000F01F0004C02BF490011F4A8
:100E6000000F013BF9D041EA0C018FE70CEAD153A6
:100E700092EA0C0F18BF93EA0C0F0AD030F0004C26
:100E800018BF31F0004CD8D180EA010000F00040DA
:100E9000704790F0000F17BF90F0004F084691F098
:100EA000000F91F0004F14D092EA0C0F01D14202D2
:100EB0000FD193EA0C0F03D14B0218BF084608D19B
:100EC00080EA010000F0004040F0FE4040F40000E5
:100ED000704740F0FE4040F4400070474FF0FF0C78
:100EE0001CEAD0521EBF1CEAD15392EA0C0F93EABF
:100EF0000C0F69D0A2EB030280EA010C49024FEA11
:100F0000402037D04FF0805343EA111143EA1013C9
:100F10000CF000408B4238BF5B0042F17D024FF481
:100F2000000C8B4224BF5B1A40EA0C00B3EB510F5C
:100F300024BFA3EB510340EA5C00B3EB910F24BF45
:100F4000A3EB910340EA9C00B3EBD10F24BFA3EBCA
:100F5000D10340EADC001B0118BF5FEA1C1CE0D192
:100F6000FD2A3FF650AF8B4240EBC25008BF20F045
:100F7000010070470CF0004C4CEA50207F32C2BF99
:100F8000D2F1FF0340EAC250704740F400004FF036
:100F90000003013A37E792F0000F00F0004C02BF67
:100FA000400010F4000F013AF9D040EA0C0093F031
:100FB000000F01F0004C02BF490011F4000F013B8B
:100FC000F9D041EA0C0195E70CEAD15392EA0C0FF3
:100FD00008D142027FF47DAF93EA0C0F7FF470AF2B
:100FE000084676E793EA0C0F04D14B023FF44CAF6E
:100FF00008466EE730F0004C18BF31F0004CCAD103
:1010000030F000427FF45CAF31F000437FF43CAF3E
:101010005FE700BF4FF47A7370B50D4D0D4A297824
:101020001268B3FBF1F30646B2FBF3F000F09EFA50
:1010300008B90F2E01D9012070BD04460246314681
:101040004FF0FF3000F050FA6E60204670BD00BFD8
:1010500000000020B4030020074A08B513680320ED
:1010600043F01003136000F02DFA0020FFF7D2FFC9
:1010700008F0B8F8002008BD00200240034A044BE5
:1010800011681B780B441360704700BFE40D00200B
:1010900000000020014B1868704700BFE40D0020DD
:1010A00038B50446FFF7F6FF631C054602D0044B33
:1010B0001B781C44FFF7EEFF401BA042FAD338BD5B
:1010C000000000200368D86C704700BF002270B495
:1010D00090F8243083B0012B01925FD001234D683A
:1010E0000468062D80F824300A6805EB85034FF06C
:1010F0001F0625D90C2D47D8233B256B9E4025EA9A
:10110000060502FA03F32B432363092A8B684FF089
:10111000070602EB420123D91E39E5688E408B4059
:1011200025EA06010B43E360A2F11003012B22D94B
:101130000023002280F82420184603B070BC7047BA
:10114000053B656B9E4025EA060502FA03F32B4337
:10115000092A63634FF007068B6802EB4201DBD874
:1011600025698E408B4025EA06010B432361A2F1DD
:101170001003012BDCD81A4B9C4214D0826A012345
:1011800042F020028262D4E7413BE56A9E4025EAB4
:10119000060502FA03F32B43E362B6E7022318467F
:1011A00003B070BC7047A3681B02C1D4A368102AA7
:1011B00043F40003A360BBD10A4B0B4A1B68A2FB9C
:1011C00003239B0C03EB83035B000193019B002B28
:1011D000AED0019B013B0193019B002BF9D1A7E706
:1011E00000240140B403002083DE1B43002370B5BC
:1011F000026882B001939368DB0721D4184B194C25
:101200001B689168A4FB034341F001019B0C9160B2
:101210000193019B2BB1019B013B0193019B002B8F
:10122000F9D10546FFF736FF064604E0FFF732FF27
:10123000801B022807D82B689C6814F00104F5D0A5
:10124000002002B070BD0120AB6A85F8244043F055
:101250001003AB62EB6A0343EB6202B070BD00BFE8
:10126000B403002083DE1B4390F82430012B38D0D8
:10127000012310B580F824300446FFF7B7FF60BBA8
:10128000A36A226823F44073284923F0010343F43E
:1012900080738A42A36226D0A36A23F48013A362D8
:1012A000536859052BD4A36A002113F4805318BF47
:1012B000E36A84F8241018BF23F00603E3626FF09A
:1012C00002031360936803F46023B3F5602F1DD00D
:1012D000936843F48013936010BD002384F8243096
:1012E00010BD02207047124B596811F4702FD3D0F3
:1012F000A16A41F48011A1625B685B05D3D5A36A42
:1013000023F4405343F48053A362CCE7074B9A4243
:1013100004D0936843F4A003936010BDA3F58063E9
:101320005B6813F4702FD3D1F3E700BF00280140AE
:101330000024014038B503689A68D20701D4002020
:1013400038BD9A68044622F001029A60FFF7A2FEB7
:10135000054623689B68DB07F1D5FFF79BFE401B22
:101360000228F6D90120A36A43F01003A362E36ABE
:101370000343E36238BD00BF002857D0F8B5836A45
:101380000446002B45D02046FFF7D4FFA36A13F094
:10139000100338D1002836D1D4E90257A26AE66991
:1013A000616822F4885222F0020242F002023143C4
:1013B000B5F5807FA26241EA47016669226837D0AD
:1013C000012D4FD0012E52D055683C4B25F4694574
:1013D00055600546966833400B439360D36A384E98
:1013E00023F470032B43D36293681E40B14230D084
:1013F0000120A36A23F0120343F01003A362E36AFF
:101400000343E362F8BDA36A012043F01003A36223
:10141000F8BDC36280F8243007F034FF2046FFF7A0
:1014200089FFA36A13F01003EDD1B3E701207047E1
:10143000012E3FD05568214B25F4694545F4807550
:10144000556095682B400B4393602369013B1D0554
:10145000C4E70023E362A36A23F0030343F001031C
:10146000A362F8BD012E08BF4FF48073E2D1D7B15B
:10147000A66A46F02006A662E66A46F00106E66223
:1014800057680E4E27F469473B4353609368B5F5A0
:10149000807F06EA030646EA01069660D5D0012D54
:1014A000D3D000259AE7A669013E43EA463343F4C8
:1014B0000063E5E72B46002FDAD1F4E7FDF7E1FF03
:1014C000FE0E1FFF4FF6FF01064A0002D36800F42C
:1014D000E0600B4043F0BF6343F400330343D36049
:1014E000704700BF00ED00E0184B30B4DB68C3F379
:1014F0000223C3F10705042D03F1040428BF0425CA
:10150000062C19D94FF0FF34033B9C4022EA040417
:101510004FF0FF32AA4021EA020101FA03F222430E
:1015200012010028D2B20ADB00F1604000F56140F0
:1015300080F8002330BC704700242346E8E7044BC2
:1015400000F00F0003441A7630BC704700ED00E055
:10155000FCEC00E0012300F01F01034A40098B402E
:1015600042F82030704700BF00E100E00138B0F1E0
:10157000807F0DD230B4F02500220721054B064CA8
:10158000586084F82350104630BC9A601960704748
:101590000120704710E000E000ED00E0044A04285C
:1015A00013680CBF43F0040323F004031360704777
:1015B00010E000E0704700BF08B5FFF7FBFF08BD73
:1015C0002DE9F04F4FF0000883B04446DFF8C0C16A
:1015D000694EDFF8C0E102E00134102C78D001231D
:1015E0000A68A3401A409342F6D14D68122D00F0CC
:1015F0009C807ED8022D00F0948074D9032D00F0D9
:101600008D80112D02D1CB6803F10408FF2A62D826
:1016100082460368A5004FF00F0909FA05FB23EA8B
:101620000B0308FA05F52B43CAF80030D1F804A0E3
:101630001AF0805FD0D0514F24F00305BB6905F14B
:10164000804543F00103BB61BB6905F5803503F0BC
:101650000103019304F0030B019B4FEA8B0BAB6872
:1016600009FA0BF9604523EA09030FD0704560D0F1
:10167000434FB84278D0434FB8420CBF4FF00309F4
:101680004FF0040909FA0BFB43EA0B03AB60336824
:101690001AF4803F14BF13439343336073681AF402
:1016A000003F14BF134393437360B3681AF4801F61
:1016B00014BF13439343B360F3681AF4001F04F19B
:1016C000010414BF1A4323EA0202102CF26086D1EF
:1016D00003B0BDE8F08F04F18045083D4368AD00DC
:1016E00000F1040A97E7A5B1012D8FD1D1F80C8044
:1016F0008CE7254FBD420CD029D9244FBD4208D0DC
:1017000007F58037BD4204D0DFF88C904D457FF45B
:101710007DAF8D68A5B94FF0040877E74FF000085A
:1017200074E7CB6803F1080870E7CB6803F10C0895
:101730006CE74FF0010909FA0BFB43EA0B03A5E73D
:10174000012D0CBF036143614FF008085EE7DFF82D
:101750004C904D45DDD009F580394D457FF456AFAD
:101760008D68002DD7D0EBE74FF0020909FA0BFB8B
:1017700043EA0B038AE700BF000401400010024067
:101780000010014000140140000021100000311041
:1017900000080140000C0140000022100000111060
:1017A0008368194214BF01200020704702B9090460
:1017B000016170472DE9F0410746164698468DB203
:1017C0003C6804E061694A0507D4731C18D160695C
:1017D00035EA0000F6D1BDE8F08100226FF48060A8
:1017E00004252021236843F40073236060613D6475
:1017F00001203A6387F83C2087F83D10BDE8F0816E
:101800002EB1FFF747FCA0EB0800B042D8D9002367
:1018100020223B6387F83C3087F83D200320DAE73D
:101820002DE9F843814690461E460F0C8CB2D9F83C
:10183000005009E0A96934EA01030CBF012000202F
:1018400080450BD1731C0CD1012FF3D16B6934EAA5
:1018500003030CBF012000208045F3D00020BDE829
:10186000F8832EB1FFF716FC089BC01AB042DED9F0
:1018700000232022C9F8303089F83C3089F83D2017
:10188000032089F83E30EAE7F8B506460D461746CC
:10189000306804E04469620507D46B1C12D14369C7
:1018A00013F00403F6D00020F8BD6FF48064042127
:1018B0002022446131640120336386F83C3086F88D
:1018C0003D20F8BD25B1FFF7E5FBC01BA842DFD9DD
:1018D00020210022336C86F83C200B433364032024
:1018E000326386F83D10F8BD70B505460C461646C5
:1018F00008E05169C90617D45CB1FFF7CBFB801B28
:10190000A04206D82A68536913F04003F1D00020A2
:1019100070BD202200212B6C85F83C1013432B64F2
:10192000032085F83D2070BD6FF01000202150612C
:101930002B6401202B6385F83C3085F83D1070BD89
:10194000F8B506460D461746306804E0446962055E
:1019500007D46B1C12D1436913F08003F6D000202A
:10196000F8BD6FF4806404212022446131640120B9
:10197000336386F83C3086F83D20F8BD25B1FFF78B
:1019800089FBC01BA842DFD920210022336C86F8D6
:101990003C200B4333640320326386F83D10F8BDCE
:1019A0002DE9F047066884B035680D9F45F48075D1
:1019B000884691469A4635600C9B009700224FF06E
:1019C00001110446FFF72CFF88B9226808F0FE03D6
:1019D00013611F493B460C9A2046FFF7EBFE50B1BE
:1019E000236C042B03D1012004B0BDE8F087032051
:1019F00004B0BDE8F0872368039059693A46039123
:101A00009B690C9903932046039BFFF799FF88B9C4
:101A1000BAF1010F216817D04FEA19230B613A463A
:101A20000C992046FFF78CFF20B922685FFA89F3F2
:101A30001361DDE7236C042BD9D1226801201368E0
:101A400043F400731360D3E75FFA89F30B61CFE7C8
:101A5000020001002DE9F047046884B026680D9F5C
:101A600046F4806626602668884646F4807691466D
:101A70009A4626600C9B009700224FF00111054604
:101A8000FFF7CEFE98B92B685FFA88F808F0FE02DF
:101A90001A6130493B460C9A2846FFF78BFE50B13D
:101AA0002B6C042B03D1012004B0BDE8F087032088
:101AB00004B0BDE8F0872B68039059693A4603915A
:101AC0009B690C9903932846039BFFF739FF40BBA2
:101AD000BAF1010F2B682ED15FFA89F21A613A46EA
:101AE0000C992846FFF72CFFD8B92C6802462168CC
:101AF0000C9B41F48071216028464FF00111009742
:101B0000FFF78EFE0028D2D1296848F001020A6151
:101B10003B460C9A0F492846FFF74CFE0028BFD1E0
:101B2000C6E72B6C042BC2D12A680120136843F44A
:101B300000731360BCE74FEA19221A610C993A4608
:101B40002846FFF7FDFE0028EBD12A685FFA89F3EB
:101B50001361C4E70200010000286CD090F83D300A
:101B600070B503F0FF020446002B5DD024232268E9
:101B700084F83D30136823F00103136000F026FD64
:101B80006268364B9A422FD8354B984251D9530050
:101B9000421EB2FBF3F233490132A1FB0030810C4B
:101BA000C2F30B00042838BF042023684A1C596084
:101BB0001A620022D4E9071620253143D861D4E9FE
:101BC000036019603043D4E9051631439860D96049
:101BD0001968104641F001011960226484F83D50F3
:101BE000226384F83E2070BD1F4B984221D94FF4E8
:101BF00096711C4D1D4BA5FB0065AD0C01FB05F15D
:101C0000A3FB0131A6682368890901315D600138B1
:101C1000196296B902EB4202B0FBF2F00130C0F358
:101C20000B00C0B90120C4E780F83C2007F04AFB54
:101C30009CE7012070BD0120704702EB820202EB9D
:101C40008202B0FBF2F00130C0F30B000028E9D0B3
:101C500040F44040ADE740F40040AAE7A086010010
:101C60007F841E0083DE1B43FF083D00D34D6210BE
:101C70002DE9F047044682B099460E461746BDF856
:101C80002C80FFF707FA94F83D30202B03D0022078
:101C900002B0BDE8F08705460090192301224149B2
:101CA0002046FFF7BDFD0028F1D194F83C30012B10
:101CB000EDD00123226884F83C301368D90703D49F
:101CC000136843F00103136040204FF0210C4FF0E4
:101CD000000A11684B4621F400611160324A314616
:101CE0000A9E84F83DC084F83E00C4F840A0A4F8E1
:101CF0002A80E262608D66620C9E019500963A46EB
:101D000020852046FFF74CFE30B1236C84F83CA0C0
:101D1000042B2BD10120BBE7238DBBB12A460C99A4
:101D20002046FFF70DFEB8B9616A20684B1C63625C
:101D30000B78268D0361628D731E013A92B2628523
:101D400042699BB252072385E7D58BB92A460C9985
:101D50002046FFF799FDB8B1236C042B06D1226809
:101D60000120136843F40073136091E703208FE7A9
:101D70008B1C63624A78B31E0261628D9BB2013A8A
:101D800092B223856285C8E720212268136843F454
:101D90000073136084F83D1084F83C0084F83E0022
:101DA00076E700BF020010000000FFFF2DE9F047BA
:101DB000044686B099460E461746BDF83C80FFF7AC
:101DC00069F994F83D30202B04D00226304606B045
:101DD000BDE8F0870546009019230122944920466A
:101DE000FFF71EFD0028F0D194F83C30012BECD019
:101DF0000123226884F83C301368D90703D41368A0
:101E000043F0010313604FF0220C40204FF0000A12
:101E100011684B4621F400611160864A31460E9EDE
:101E200084F83DC084F83E00C4F840A0A4F82A809D
:101E3000E262608D6662109E019500963A462085AA
:101E40002046FFF707FE0646A8B9238D2268F3B99E
:101E500002905369029393690293029B136843F4BF
:101E6000007313600023202284F83C3084F83D2066
:101E700084F83E30AAE7236C84F83CA0042B04D1FC
:101E80000126A3E7236C202BFAD103269EE7012B22
:101E90005DD0022B00F0B980116841F480611160BF
:101EA00005905169059192690592059A624F002B40
:101EB000D8D0032B5ED8012B00F09B80022B00951D
:101EC000109B4FF00002394620467AD0FFF7A8FC5D
:101ED0000028DAD121680B6823F480630B6072B6A6
:101EE0002268636A1269591C61621A70638D218DC0
:101EF000013B01399BB20095024621856385394635
:101F0000109B2046FFF78CFC0028BED12368616A35
:101F10001A68481C42F400721A601B6960620B70F8
:101F2000638D228D013B9BB2013A6385228562B6A7
:101F30002268636A1269591C61621A70628D238D6E
:101F4000013A013B92B29BB262852385AFE71368E9
:101F500023F48063136072B6236803905A69039276
:101F60009A690392039A1A6842F400721A6062B680
:101F7000238D9BE72A4610992046FFF7B5FC0028E1
:101F800080D12268636A1269591C61621A70628D7D
:101F90002168013A92B2238D62854A69013B9BB266
:101FA0005207238583D5636A0A69591C61621A70D6
:101FB000238D628D013B013A9BB292B223856285EB
:101FC00075E7FFF72DFC00287FF45FAF72B623683A
:101FD000616A1A68481C42F400721A601B696062E8
:101FE0000B70638D228D013B013A9BB22285638584
:101FF0009DE72A4610992046FFF776FC00287FF4DB
:1020000041AF2268636A1269CFE7136843F4006343
:10201000136072B6236804905A6904929A69049214
:10202000049A1A6822F480621A6062B6238D3DE732
:10203000020010000000FFFF040001002DE9F04144
:10204000036882B0DD07044630D5AB494A6802F028
:102050000C02042A00F0DA804A6802F00C02082A16
:1020600000F0D0806368B3F5803F00F00F81002B53
:1020700000F02781B3F5A02F00F0B5819E4B1A68C0
:1020800022F480321A601A6822F480221A60FFF764
:1020900001F8994D064605E0FEF7FCFF801B642819
:1020A00000F20B812B689A03F6D523689F0728D589
:1020B000914A516811F00C0F00F0B680516801F0A0
:1020C0000C01082900F0AC802369002B00F041814D
:1020D00001228A4B884D1A60FEF7DCFF064605E0B8
:1020E000FEF7D8FF801B022800F2E7802B689807D4
:1020F000F6D52B68626923F0F80343EAC2032B602C
:1021000023681A0722D5A369002B00F098800122CA
:102110007B4B794D1A60FEF7BDFF064605E0FEF7E2
:10212000B9FF801B022800F2C8806B6A9B07F6D5B6
:10213000744B754A1B68A2FB03235B0A019300BF23
:10214000019B5A1E0192002BF9D123685D0739D5F6
:10215000694BDA69D00040F1828000256B4B1A6828
:10216000D10540F19980E368012B0FD0002B00F0DE
:10217000D180052B604B1A6A00F0FC8022F001022E
:102180001A621A6A22F004021A6204E05A4A136AB6
:1021900043F001031362FEF77DFF574E804641F284
:1021A000883706E0FEF776FFA0EB0800B84200F2A1
:1021B0008480336A9B07F5D525B14F4AD36923F054
:1021C0008053D361E269CAB14B4D696801F00C01DB
:1021D000082930D0022A4FF000014D4A00F0D28089
:1021E0001160FEF757FF2C46054604E0FEF752FF4C
:1021F000401B022861D823689B01F7D4002002B05D
:10220000BDE8F0814A68D0037FF52CAF3A4A1268E6
:1022100091037FF54BAF6268002A7FF447AF0AE075
:102220005268D6033FF550AF334A1268950721D55F
:102230002269012A1ED0012002B0BDE8F081304A97
:102240002D4D1360FEF726FF064604E0FEF722FF41
:10225000801B022831D86B6A9F07F7D475E7DA69CB
:10226000012542F08052DA61DB6903F0805300936C
:10227000009B73E7204960690A6822F0F80242EA8D
:10228000C0020A601A077FF561AF3CE71A4A13687B
:1022900043F480331360FAE61A681E4642F48072F3
:1022A0001A60FEF7F7FE07463368DA053FF55BAFC5
:1022B000FEF7F0FEC01B6428F6D9032002B0BDE88B
:1022C000F08103F1804303F504331A681D4622F4BC
:1022D00080321A601A6822F480221A60FEF7DAFE51
:1022E000064604E0FEF7D6FE801B6428E5D82B687E
:1022F0009B03F7D4D9E600BF001002400000424221
:1023000080044242B4030020D34D621000700040AC
:102310006000424203F1804303F504331A6A1E460B
:1023200022F001021A621A6A41F2883822F004028D
:102330001A62FEF7AFFE074604E0FEF7ABFEC01BD5
:102340004045BAD8336A9807F7D4002D3FF43AAF26
:1023500033E72B4A2B4D1360FEF79CFE064604E044
:10236000FEF798FE801B0228A7D82B689907F7D4A0
:102370002368C6E642F004021A621A6A42F00102B9
:102380001A6208E71160FEF785FE064604E0FEF7D4
:1023900081FE801B022890D82B689901F7D4226A0D
:1023A000B2F5803F05D16B68A16823F400330B437D
:1023B0006B600125134B606A5968024321F4741164
:1023C00011480A435A6005601C46FEF763FE054645
:1023D00005E0FEF75FFE401B02283FF66EAF236864
:1023E0009A01F6D50AE703F18043A3F53C331A6856
:1023F00042F480221A601A6842F480321A6046E67B
:1024000000004242001002406000424240F20122BD
:1024100086B0154B0DF1180CADF804200FCB0CE96C
:102420000F0012494B6803F00C02082A02D0104832
:1024300006B07047C3F383426244DB0312F8102CEA
:1024400004D40C4800FB02F006B070474B68084803
:10245000C3F3404300FB02F0634413F8143CB0FBA9
:10246000F3F006B0704700BF30A40008001002402F
:1024700000127A0000093D004D4A136803F007037B
:102480008B420BD2136823F007030B4313601368CE
:1024900003F007038B4201D00120704703682DE948
:1024A000F0419A0706D5434C8568626822F0F00235
:1024B0002A436260DF0704460E4622D542683D4B40
:1024C000012A1B686FD0022A6AD0990729D5394D95
:1024D00041F288386B6823F0030313436B60FEF707
:1024E000D9FD63680746012B49D0022B05D151E085
:1024F000FEF7D0FDC01B404558D86B6813F00C0F99
:10250000F6D12B4A136803F00703B3420CD91368C2
:1025100023F0070333431360136803F00703B34248
:1025200002D00120BDE8F08123685A0706D5214971
:10253000E0684A6822F4E06202434A601B0707D55C
:102540001C4A2169536823F4605343EAC103536072
:10255000FFF75CFF174B18495B68184AC3F3031376
:10256000CB5C20FA03F300201360FEF753FD00203C
:10257000BDE8F081FEF78EFDC01B404516D86B68A4
:1025800003F00C03042BF5D1BBE7FEF783FDC01B62
:1025900040450BD86B6803F00C03082BF5D1B0E76E
:1025A000980194D4BDE79D0391D4BAE70320B9E71D
:1025B000002002400010024028AE0008B4030020B2
:1025C000014B1868704700BFB4030020044B054955
:1025D0005B68054AC3F30223CB5C1068D8407047A0
:1025E0000010024038AE0008B40300202DE9F0418D
:1025F0000446006882B0C5072AD53A4BDA69D10093
:102600003DD5394B00251A68D20546D53549606855
:102610000A6A12F440720FD000F4407393420BD058
:10262000012700260B6A314A23F4407017601660B8
:102630000862D80745D460682A4A136A23F44073B5
:10264000034313621DB1D36923F08053D361206823
:10265000830706D5234AA168536823F440430B43FC
:10266000536010F0100007D000201E4AE168536844
:1026700023F480030B43536002B0BDE8F081DA69B4
:10268000012542F08052DA61DB6903F08053019347
:10269000019B154B1A68D205B8D41A681E4642F43D
:1026A00080721A60FEF7F6FC07463368DB05ADD48E
:1026B000FEF7F0FCC01B6428F7D9032002B0BDE888
:1026C000F0810E46FEF7E6FC41F288378046336A19
:1026D0009A07B0D4FEF7DEFCA0EB0800B842F6D9AA
:1026E000EBE700BF0010024000700040400442428F
:1026F0002DE9F04180460F4616461D46D8F80040A9
:1027000001E06B1C0AD1A06837EA00030CBF01206E
:1027100000208642F5D10020BDE8F0813DB1FEF7F2
:10272000B9FC069BC01AA842E8D3D8F800406368F9
:10273000D8F8042023F0E003B2F5827F636015D05F
:10274000D8F82830B3F5005F08D14DF6FF72236842
:1027500013402360236843F40053236001220023C5
:1027600088F8512088F850300320D5E7D8F8083091
:10277000B3F5004F02D0B3F5806FE1D1236823F0A9
:1027800040032360DCE700BF2DE9F041044690F8E8
:10279000500084B0012855D01E46012384F85030E3
:1027A0000D469046FEF776FC074694F85100C0B2FD
:1027B000012809D002200122002384F8512084F846
:1027C000503004B0BDE8F081002DF4D0B8F1000F16
:1027D000F1D00322002384F85120A2686365B2F58A
:1027E000004FA363A387C4E91033A4F836802563A0
:1027F000E387A4F83480236803D11A6842F4804246
:102800001A601A68520621D5E2686168B2F5006F55
:1028100046D001BB15F8012B1A73E38E013B9BB226
:10282000E386E38E9BB2DBB123689A689207F1D40A
:1028300036B1731CF5D0FEF72DFCC01BB042F0D3AF
:102840000320B8E7022004B0BDE8F0811A6842F026
:1028500040021A60D8E7E28E92B2012AE1D1D9E7AC
:1028600000973346012202212046FFF741FF00284E
:10287000E6D102460097334680212046FFF738FF15
:1028800000282CD1A36833B922680393D36803933B
:1028900093680393039B606D003018BF01208AE7A3
:1028A000A9B1E28E92B2012A11D0E38E9BB2002B25
:1028B000D6D023689A68900709D4002EC0D0711C26
:1028C000F3D0FEF7E7FBC01BB042EED3B8E735F814
:1028D000022BDA60E38E013B9BB2E386E5E7202220
:1028E000636D012013436365626564E790F85100EE
:1028F000704700BF002839D0F8B5002390F8512068
:102900000446836272B31A46D4E9013602270021D5
:102910000125E06833432669034360693343E66970
:1029200003433343206AA66984F851700343276840
:1029300006F40070034313433A68606A22F04002D1
:10294000360C3A6006F004063B60E36A06437E609C
:102950003B61FB69084623F40063FB61616584F811
:102960005150F8BD06F0D2FCA26ACDE701207047B5
:10297000026AF0B422F001028D680262036A4768BD
:1029800023F0020382692B430D4D0C6822F0730281
:10299000A84242EA040206D0496847608261F0BC5E
:1029A000416303627047CE6823F00803D1E905450F
:1029B00027F4407733432C4323F004032743EBE70A
:1029C000002C0140026AF0B422F480728D68026229
:1029D000036A476823F40073C26943EA05230F4D75
:1029E0000C6822F07302A84242EA040206D0496849
:1029F0004760C261F0BCC16303627047CE6823F4D4
:102A00000063D1E9054527F4405743EA06232C43E8
:102A100023F4806347EA0417E9E700BF002C014074
:102A2000026A70B422F480528E680262036A4568BA
:102A300023F40053C26943EA06330A4E0C6822F4B9
:102A4000E642B04242EA042204D14C6925F48045B2
:102A500045EA841549684560C26170BC016403623F
:102A6000704700BF002C014002684868936870B44A
:102A700023F070030C68034323F00703234350281B
:102A8000936036D024D960280ED070280AD1D1E9BD
:102A9000024308699168234343EA002321F47F41FC
:102AA0000B43936070BC7047106A8C6820F0100074
:102AB0000D6910629169136A21F4704123F0A0033B
:102AC00041EA053143EA0413916170BC1362704717
:102AD0004028E7D1146A106A0D6920F001001062E5
:102AE000936923F0F00343EA05139361146270BC09
:102AF0007047146A156A0E6925F001058868156229
:102B0000936924F00A0123F0F00343EA061301431A
:102B1000936170BC1162704703680020DA6842F06C
:102B20000102DA601A6842F001021A60704700BFC1
:102B3000704700BF0122036802FA01F11A6A0A48CD
:102B400022EA01021A621A6A834241EA0201196208
:102B500003D15A6C42F400425A641A68002042F0D1
:102B600001021A60704700BF002C014003680C2965
:102B70000CD8DFE801F0070B0B0B2C0B0B0B270B12
:102B80000B0B2200DA6842F00202DA600122186AB6
:102B900002FA01F120EA01001862186A0E4A0143A4
:102BA0009342196203D15A6C42F400425A641A6883
:102BB000002042F001021A607047DA6842F0100209
:102BC000DA60E3E7DA6842F00802DA60DEE7DA6842
:102BD00042F00402DA60D9E7002C0140704700BFE0
:102BE000FFF7A8BFFFF7C2BF90F83C30012B67D0BA
:102BF0000222F0B40125036880F83D209A680C6831
:102C000022F47F4222F07702402C80F83C509A60F8
:102C100000F0938018D9702C7FD02BD9B4F5805F49
:102C200076D0B4F5005F1CD1D1E90152CC68996827
:102C30002A4342EA042221F47F410A439A609A68B7
:102C400042F480429A600CE0102C42D02FD9202C04
:102C500038D0302C05D19A6822F0700242F0370249
:102C60009A600023F0BC012280F83C3080F83D20BF
:102C700018467047502C33D0602CF2D11C6A4D6836
:102C800024F01004CE681C6299691A6A21F470411C
:102C900022F0A00242EA051241EA063199611A6265
:102CA0009A6822F0700242F067029A60D9E7002C1D
:102CB000D7D19A6822F0700242F007029A60D0E7FA
:102CC000022070479A6822F0700242F027029A6050
:102CD000C7E79A6822F0700242F017029A60C0E7D4
:102CE0001D6A1E6A4C6826F00106CF681E629A694A
:102CF00025F00A0122F0F00242EA071221439A610C
:102D000019629A6822F0700242F057029A60A8E7AE
:102D10009A6822F007029A60A3E7D1E90152CC68D1
:102D200099682A4342EA042221F47F410A439A60C7
:102D30009A6842F077029A6093E71D6A1E6A4C68AF
:102D400026F00106CF681E629A6925F00A0122F07A
:102D5000F00242EA071221439A6119629A6822F04E
:102D6000700242F047029A607BE700BF38B590F8E6
:102D70003C30012B18D001250223044680F83C503A
:102D800080F83D30FFF770FE002123680846DA68BE
:102D900022F04002DA60DA6822F48042DA6084F8D5
:102DA0003D5084F83C1038BD022038BD704700BF4C
:102DB000704700BF704700BF036810B51A6904462A
:102DC000910702D5DA6892075FD41A69500702D5D5
:102DD000DA68510746D41A69120702D5DA68100773
:102DE0002ED41A69D20602D5DA68D00618D41A6928
:102DF000D10702D5DA68D2075DD41A69100602D568
:102E0000DA6811065FD41A69520602D5DA685006EC
:102E100061D41A69910602D5DA68920643D410BDCE
:102E20006FF0100108221961DB69204613F4407F1E
:102E3000227764D0FFF7BAFF002223682277D6E713
:102E40006FF0080104221961DB6920469907227797
:102E500052D103F0E1FE2046FFF7AAFF00222368CB
:102E60002277BEE76FF00401022219619B692046B8
:102E700013F4407F22773CD103F0CEFE2046FFF7CB
:102E800097FF002223682277A5E76FF00201012255
:102E900019619B6902779B0725D0FFF787FF002206
:102EA0002368227791E76FF020022046BDE81040AA
:102EB0001A6100F0BBB96FF0010220461A6103F0FD
:102EC00099FF236899E76FF0800220461A6100F0AD
:102ED000AFF9236897E76FF0400220461A61FFF7C9
:102EE00069FF236895E703F097FE2046FFF760FF30
:102EF000D5E7FFF75BFFC4E7FFF758FFAEE703F046
:102F00008BFE2046FFF754FF96E700BF70B41C4EBF
:102F10000368B0424D698C680A681DD0B0F1804FDB
:102F200011D0A6F59436B0420DD006F58066B042B9
:102F300009D023F080032B4303600123C462826223
:102F400070BC436170474E6823F070033343C96817
:102F500023F440730B43ECE74E6823F070033343D4
:102F6000CE6823F44073334323F080032B43036084
:102F7000C46282620B6970BC0363012343617047C2
:102F8000002C0140B8B190F83D3010B503F0FF02BD
:102F900004465BB10223206884F83D30211DFFF711
:102FA000B5FF0123002084F83D3010BD80F83C209F
:102FB00006F0D0F9EEE70120704700BFB8B190F8F5
:102FC0003D3010B503F0FF0204465BB102232068D8
:102FD00084F83D30211DFFF799FF0123002084F87C
:102FE0003D3010BD80F83C20FFF7A2FDEEE7012048
:102FF000704700BFB8B190F83D3010B503F0FF0244
:1030000004465BB10223206884F83D30211DFFF7A0
:103010007DFF0123002084F83D3010BD80F83C2066
:10302000FFF7DCFDEEE70120704700BF026AF0B455
:1030300022F010028D680262036A476823F02003C1
:10304000826943EA05130F4D0C6822F4E642A84258
:1030500042EA042206D0496847608261F0BC81637D
:1030600003627047CE6823F08003D1E9054527F459
:10307000406743EA06132C4323F0400347EA8407E2
:10308000E9E700BF002C014090F83C30012B28D02C
:1030900010B502230446012084F83D3084F83C003A
:1030A0000C2A0BD8DFE802F0070A0A0A150A0A0AF6
:1030B000190A0A0A11002068FFF75AFC01230020B0
:1030C00084F83D3084F83C0010BD2068FFF7A8FC70
:1030D000F4E72068FFF7AAFFF0E72068FFF772FC2B
:1030E000ECE70220704700BF38B590F83C30012B68
:1030F00074D00D4602230121044680F83C1080F86C
:103100003D300C2A19D8DFE802F0071818183818D3
:103110001818511818181F0029460068FFF728FCD6
:1031200023682869996941F008019961996921F03A
:10313000040199619A6902439A610123002084F88D
:103140003D3084F83C0038BD29460068FFF768FC34
:1031500023682869D96941F40061D961D96921F4EA
:103160008061D961DA6942EA0022DA610020012334
:1031700084F83C0084F83D30E5E729460068FFF715
:1031800055FF23682869996941F40061996199693B
:1031900021F4806199619A6942EA00229A610020D3
:1031A000012384F83C0084F83D30CCE729460068D0
:1031B000FFF708FC23682869D96941F00801D96143
:1031C000D96921F00401D961DA690243DA6100208A
:1031D000012384F83C0084F83D30B4E7022038BD78
:1031E00090F83C30012B1ED002460220F0B400259E
:1031F0000126136882F83D005C680F6824F07004B3
:103200005C6058684C6838435860986820F08000CB
:103210009860996828462143996082F83D6082F859
:103220003C50F0BC70470220704700BF704700BFA1
:10323000704700BFFDF734BF10B5023982B08DF87A
:103240000720052911D8DFE801F04A03133928289F
:103250009DF80730002B4CD10120FDF721FF012202
:103260004FF480512648FEF7A1FA012002B010BDAC
:1032700001224FF480612248FEF798FA00224FF4B1
:1032800080611F48FEF792FA01224FF480611C48CA
:10329000FEF78CFA012002B010BD19469DF80720F8
:1032A00042F210731748FFF76FFA164C2046FFF7EB
:1032B0001DFB0128FAD1012002B010BD42F21073AB
:1032C00001220DF107010F48FFF75EFA0D4C204671
:1032D000FFF70CFB0128FAD1012002B010BD9DF8C8
:1032E00007204FF400610648FEF760FA012002B0A3
:1032F00010BD00224FF480510148FEF757FAB4E7A1
:10330000000C0140340E00202DE9F04F85B09DF8EF
:1033100038409A46DB0003F0F803009480468B4661
:103320001646DDF83C9000F029F818B314B30AF102
:10333000FF333444DBB2E2B2013302920393BAF1B9
:10334000000F11D05C464D46039B09EB030715F8AF
:10335000012B2146009200233246404600F09EFD9C
:103360000834AF42E4B2F2D10136029BF6B29E427B
:10337000D144E4D105B0BDE8F08F00BF70B49DF832
:103380000C4090F83B60013C14449642E4B290F843
:10339000395012D3A54212D890F83A40013B0B4461
:1033A0008C42DBB290F838200ED39A4213D999425E
:1033B00094BF0020012070BC7047A54201D8A242F2
:1033C000EAD870BC002070479A42FAD8994294BF5C
:1033D00000200120EFE7012070BC704710B48C681A
:1033E0000023A446012110BC604700BF10B48C68C4
:1033F0000023A446032110BC604700BF10B48C68B2
:103400000023A446022110BC604700BF10B48C68A2
:103410000023A446052110BC604700BF10B48C688F
:103420000621A44610BC60472DE9F84306460D4628
:1034300014461278FF2A09D0AF68002305213046D0
:10344000B84760B314F8012FFF2AF5D194F8019022
:10345000A046B9F1FF0F0AD14A46AF680023052103
:103460003046B847D8B1023498F80220E2E7B9F103
:10347000FE0F24D0B9F1EF0F04F102040CD8B9F11A
:10348000DF0F0FD909F00F02AF6800230221304689
:10349000B84798F80220CDE798F80220CAE7002044
:1034A000BDE8F883B9F1CF0F0CD909F00F02AF686E
:1034B000002303213046B84798F80220BAE70120DC
:1034C000BDE8F883B9F1BF0F1AD900234FEA0919F3
:1034D00009F102091A460421AF6809F0FE093046D5
:1034E000B8474846FFF7A6FE012200230421AF6833
:1034F0003046B8474846FFF79DFE98F8022099E706
:10350000B9F1BD0FC8D819F0800FC5D14846FFF7F3
:1035100091FE98F802208DE7012070472DE9F041D7
:1035200016460A3A05460C461F460B2A3AD8DFE8EB
:1035300002F03139393939390C06393939121D4A15
:10354000FFF772FF0120BDE8F0811B4AFFF76CFF17
:103550000120BDE8F081D1F80480184AFFF764FF2C
:1035600098F80420214642F0B0022846FFF74EFFAB
:10357000012221462846FFF741FF224629464046C0
:1035800000F004FD0028DED0002221462846FFF787
:103590002DFF07E00222FFF721FF094A21462846B6
:1035A000FFF742FF3B46324621462846BDE8F04140
:1035B00000F002BE7CA4000870A4000868A4000803
:1035C00040A400082DE9F04116460A3A05460C468B
:1035D0001F460B2A3AD8DFE802F031393939393938
:1035E0000C06393939121D4AFFF71EFF0120BDE8CC
:1035F000F0811B4AFFF718FF0120BDE8F081D1F8E8
:103600000480184AFFF710FF98F80420214642F082
:10361000B0022846FFF7FAFE012221462846FFF7AE
:10362000EDFE22462946404600F0B0FC0028DED0E0
:10363000002221462846FFF7D9FE07E00222FFF7C5
:10364000CDFE094A21462846FFF7EEFE3B463246AC
:1036500021462846BDE8F04100F0AEBD7CA400083C
:1036600070A4000868A4000888A400082DE9F041AF
:1036700016460A3A05460C461F460B2A3AD8DFE89A
:1036800002F03139393939390C06393939121D4AC4
:10369000FFF7CAFE0120BDE8F0811B4AFFF7C4FE18
:1036A0000120BDE8F081D1F80480184AFFF7BCFE84
:1036B00098F80420214642F0B0022846FFF7A6FE03
:1036C000012221462846FFF799FE22462946404618
:1036D00000F05CFC0028DED0002221462846FFF7DF
:1036E00085FE07E00222FFF779FE094A21462846B7
:1036F000FFF79AFE3B46324621462846BDE8F04198
:1037000000F05ABD7CA4000870A40008B0A4000812
:1037100088A400082DE9F04116460A3A05460C46F1
:103720001F460B2A0FD8DFE802F0060E0E0E0E0E13
:103730001C160E0E0E220222FFF750FE334A2146BF
:103740002846FFF771FE3B46324621462846BDE833
:10375000F04100F079BC2E4AFFF766FE0120BDE87B
:10376000F0812C4AFFF760FE0120BDE8F081D1F81E
:103770000480294AFFF758FE98F804202146520099
:1037800062F04F0202F0FE022846FFF73FFE21469C
:1037900028460122FFF732FED8F8083098F80520B5
:1037A00021462846FFF73AFE214628460022FFF729
:1037B0001DFE2146184A2846FFF736FE98F80420D9
:1037C00021465200013262F04F02D2B22846FFF782
:1037D0001DFE214628460122FFF710FE98F805300D
:1037E000D8F808101A4628460B442146FFF716FE63
:1037F000214628460022FFF7F9FD3B463246214686
:103800002846BDE8F04100F01FBC00BF88A40008B6
:103810007CA4000870A4000868A400082DE9F04109
:1038200016460A3A05460C461F460B2A0FD8DFE813
:1038300002F0060E0E0E0E0E1C160E0E0E220222A8
:10384000FFF7CCFD334A21462846FFF7EDFD3B4606
:10385000324621462846BDE8F04100F0F5BB2E4A2D
:10386000FFF7E2FD0120BDE8F0812C4AFFF7DCFD07
:103870000120BDE8F081D1F80480294AFFF7D4FD8A
:1038800098F804202146520062F04F0202F0FE0236
:103890002846FFF7BBFD214628460122FFF7AEFD73
:1038A000D8F8083098F8052021462846FFF7B6FDDD
:1038B000214628460022FFF799FD2146184A28464E
:1038C000FFF7B2FD98F8042021465200013262F061
:1038D0004F02D2B22846FFF799FD21462846012221
:1038E000FFF78CFD98F80530D8F808101A462846DE
:1038F0000B442146FFF792FD214628460022FFF7A0
:1039000075FD3B46324621462846BDE8F04100F0B1
:103910009BBB00BF88A400087CA4000870A400081A
:10392000B0A4000843185B78405C03EB002080B231
:10393000704700BF0020704700787047704700BF95
:1039400008B5FFF7FBFF18B1022801D0032008BD1E
:10395000062008BD0621FFF7E5BF00BF0821FFF7DD
:10396000E1BF00BF807A7047C07A70472DE9F04709
:10397000D0F808A080469AF800300D461846FFF7A8
:10398000DDFF07461846FFF7DBFF012F8146504653
:1039900014BFFF260F26FFF7E5FF02465046FFF74C
:1039A000E3FF04465046FFF7D9FF602D03D950B31B
:1039B0005044612206E05046FFF7CCFF402D25D849
:1039C0000AF11100AC4217D3A2420CD914E0AA426A
:1039D00021D08378A24203EA06034B44184402F143
:1039E000010209D0D2B20378FF2BF0D1A24200F13C
:1039F000010002F10102F5D10020C8F81C0088F88E
:103A00002000BDE8F0875046FFF7A4FF0028D7D07C
:103A100050444122D6E7BFB1022F15D003F00F0268
:103A2000023A1B0988F81E2088F81D30437803F0FD
:103A30000F021B0988F8202088F81F3083781B09A3
:103A400088F81C30BDE8F08788F81F30437888F884
:103A50002030C37888F81C30037988F81D3043790A
:103A600088F81E30BDE8F0872DE9F04F8A4685B012
:103A7000194615460746FFF779FF814600284DD0C5
:103A8000BB681878FFF75CFF97F82080BA7F7B7FD0
:103A9000A5EB0805AD1A9A4497F81FB0EDB25FFA8E
:103AA0008AFA0646CDF800802A4651465B463846DB
:103AB000FFF764FC68B30BF1070BCBF3C40BB8F151
:103AC000000F26D005EB08030BF1FF32DBB2D2B2B8
:103AD0000AEBCB080293531CB14403935FFA88F8B6
:103AE000BBF1000F10D054464E4616F8012B21466C
:103AF0000834009200232A463846E4B200F0CEF99A
:103B00004445F2D1039B99440135029BEDB2AB428F
:103B1000E6D197F91C0005B0BDE8F08F05B0BDE80F
:103B2000F08F00BF2DE9F0411E46436A17468046DC
:103B30000C4698473378074493B10025FFB22146DD
:103B40003A464046FFF790FF16F8013FC0B20444E2
:103B50000544E4B2EDB2002BF1D12846BDE8F08176
:103B60001D462846BDE8F081014B4362704700BF07
:103B7000353900082DE9F041074608460C469046C5
:103B80009047054608B9BDE8F08101463846FFF781
:103B9000EDFE787F4042C6B209E020463D7FC04737
:103BA0003544EEB2014605463846FFF7DFFE0134E4
:103BB0002046C0470028F0D1202D1BBFF87F7D7F15
:103BC000387F40193044C0B2BDE8F081014AFFF7A8
:103BD000D1BF00BF393900082DE9F04F83B09DF8FF
:103BE000308099428CBFA1EB0309A3EB0109424548
:103BF0000C469A46834616465FFA89F93ED9A2EBEF
:103C00000807FFB2B94543D24846114622461E4630
:103C10000123B946444607468A46904601934645E5
:103C200034BF4FF001084FF0FF3849F34705BAF1B0
:103C3000FF0F08BF4FF0FE0A544513D91BE0324670
:103C40002146584600F01CF9ED1BEAB255B201348A
:103C5000002DE4B204DA464402EB0905F6B26DB277
:103C6000A24508D3019B002BE9D022463146584695
:103C700000F006F9E8E703B0BDE8F08FA8EB020713
:103C8000FFB2B9451CD399420FD800230193C6E770
:103C90009942FAD9224600234646544649F347053D
:103CA000924601934FF00108C1E7224600234646A1
:103CB000544649F34705924601934FF0FF38B6E763
:103CC00048462246C24698460123B946344607462E
:103CD00001931646A3E700BF10B40C68A44610BCBD
:103CE000604700BF70B504460D46436B02209847FD
:103CF00029460A222E6820460023B0470546636BFA
:103D000003209847636B00209847284670BD00BF8A
:103D100070B504460D46436B02209847636B012043
:103D200098472E682946204600231422B04704F104
:103D300038032E68294620461722B047636B0020BF
:103D4000BDE87040184700BFF8B504460D46436B08
:103D500002209847636B012098472E682946204629
:103D600000231522B047064630B12F68294604F1DA
:103D7000380317222046B847636B00209847304627
:103D8000F8BD00BF10B582B00C680DF107034622E4
:103D9000A0479DF8070002B010BD00BF10B582B06B
:103DA0000C680DF107034722A0479DF8070002B0F9
:103DB00010BD00BF30B50446416883B00D680DF1F9
:103DC00007034622A8479DF80730616823700D68F5
:103DD0000DF1070320464722A8479DF80730616888
:103DE00063700D68204600234822A8476168E0748C
:103DF0000D6804F1380320461722A84703B030BDF0
:103E000010B541680446FFF76DFF00B910BD2046AC
:103E1000FFF7D0FF012010BDF8B54FF0220C0025B0
:103E2000012304460E461746C0E902558561038208
:103E300080F8313080F812C0FFF796FE064A074B33
:103E400084F82C50A262666063632046B760BDE8C8
:103E5000F840FFF7D5BF00BF01000040A54A0008A9
:103E60004168FFF755BF00BF836910B5044603B131
:103E7000984761682046BDE81040FFF765BF00BF66
:103E8000034630B4446880F82D1080F82E20256851
:103E90002146AC4630BC2D333222604730B49DF809
:103EA000085080F82D10416880F82E2080F83030BE
:103EB00080F82F500C6800F12D03A44630BC3B2243
:103EC000604700BF002203788270013BC37002711B
:103ED000704700BF8378027841781344DBB28B428D
:103EE000837011D210B4C47803792244D2B29142C3
:103EF00098BF01F1FF3203F1010398BFD2B2037101
:103F0000C27010BC012070470020704700218368F8
:103F100042791A4403F8011B9A42FBD1704700BF53
:103F200000230B7083784B704379013B8B70C3780F
:103F3000CB70704730B4CB784A78012B1ED0032B5E
:103F400012D014460021C3788578934234BF0023F1
:103F5000012343EA0100A5428CBF002000F00100CC
:103F600030BC0B4018437047A2F10803DBB29A4201
:103F700014462CBF002101211A46E4E702F108048F
:103F8000E4B2A24294BF00210121DCE710B4044650
:103F90000846A3681146627910BCFFF73FBA00BF1C
:103FA00010B48478121BD2B2072A846803D94079EE
:103FB00002F007020444012000FA02F2D2B2605C6F
:103FC00023B920EA0202625410BC704702436254D3
:103FD00010BC704710B484784A78944206D8C478EC
:103FE000944203D343790C78A34201D810BC7047A4
:103FF0000B79214610BCFFF7D3BF00BF2DE9F0417C
:10400000CB780D46032B06468C7818D80D4AD1186C
:104010000F7912F8038009E02A786B786400424433
:104020003B4414F0FF042A706B7006D02306F3D5CE
:1040300029463046FFF7CEFFEEE7BDE8F0810027C6
:10404000B846F3E760AD000810B5143A82B04C688A
:10405000332A23D8DFE802F02A39224822222222FA
:104060002222222222222222222222222222222230
:104070002222222222224F22222222222222221AFB
:10408000222222222222222222225625194620469C
:104090000193FFF74FFF019B002838D1012002B0A8
:1040A00010BD012062781A7002B010BD0021A36813
:1040B000627903EB420203F8011B9A42FBD12046CE
:1040C000FFF700FF012002B010BD2046FFF702FFFE
:1040D0000028E4D00021A368627903EB420203F8D0
:1040E000011B9A42FBD1D9E720461946FFF718FF7A
:1040F000012002B010BD20461946FFF76BFF0120DA
:1041000002B010BD012062791A7002B010BD2046C5
:104110001946FFF773FF0120C1E700BF30B4012447
:1041200085788068521B02F007029440E4B2425C3A
:1041300023B922EA0404445430BC70471443445465
:1041400030BC704710B484784A78944206D8C4785A
:10415000944203D343790C78A34201D810BC704732
:104160000B79214610BCFFF7D9BF00BF2DE9F04104
:10417000CB780D46032B06468C7818D80D4AD118FB
:104180000F7912F8038009E02A786B7864004244C2
:104190003B4414F0FF042A706B7006D02306F3D55D
:1041A00029463046FFF7CEFFEEE7BDE8F081002755
:1041B000B846F3E768AD000810B5143A82B04C6811
:1041C000332A22D8DFE802F02932213C21212121A3
:1041D00021212121212121212121212121212121CF
:1041E0002121212121214321212121212121211AA4
:1041F000212121212121212121214A241946204642
:104200000193FFF797FE019B68BB012002B010BD30
:10421000012062781A7002B010BD2046FFF776FECA
:104220002046FFF74FFE012002B010BD2046FFF7E9
:1042300051FE0028EAD02046FFF768FE0120E5E79E
:1042400020461946FFF76CFE012002B010BD204643
:104250001946FFF777FF012002B010BD01206279F7
:104260001A7002B010BD20461946FFF77FFF0120EB
:10427000CCE700BFB0F90810B0F90A308B4218DD66
:1042800030B4C389C588828984882B449BB2224478
:104290001CB292B2002CC481828105DD058844885D
:1042A0002A441B1B8281C3810131018130BC012062
:1042B00070470020704700BF037E0131C8B28342BF
:1042C00098BF0020704700BF037E0139C8B2834207
:1042D0009CBF03F1FF30C0B2704700BF70B502EB66
:1042E000420200EBC2020E460446154692F8301018
:1042F00001E085F83000EB6A2046984704EB800324
:10430000B3F902300146B342F3D070BD2DE9F84352
:1043100001EB4101CE0000F11C07BC19227D23698D
:1043200000EB820C11460546BCF9029030F9228060
:10433000984705EB8003B3F902C035F92030ACEBA8
:104340000901A3EB08039BB289B21AB20DB2002A8D
:10435000A4F80890A4F80C802075A4F80AC0658021
:104360000EDB01230021BB531346E18193FBF5F1E2
:1043700092FBF5F205FB1133A280E380BDE8F883E0
:104380004FF6FF705B42C1F10101B8531BB2E181EE
:10439000ECE700BF2DE9F8430023047E5E4D5F4A41
:1043A000012C4564C262B0F9025080F8303040F20E
:1043B000A180012206461746A846B6F9063001320A
:1043C0009D42B8BF1D464345B8BF80F83070D7B294
:1043D000B8BF9846A74206F10406EED3A5EB080540
:1043E0002DB245830DB9BDE8F883044690F830300E
:1043F000012280F8483089464146FFF76FFF414669
:1044000000222046FFF76AFF012194F8302094F83B
:104410004830617634F9222034F923309A426CD046
:104420000023B4F91A70637600212046FFF76EFF6F
:1044300001212046FFF76AFF637E04F11C0604F1A8
:104440003405002B60D1B4F93C20002A23DB99F815
:1044500001309A421FDAB4F92830B4F9400083429F
:1044600031DA002817DB99F800108B4213DA814209
:1044700023EAE373D8BF08B2D9B2431ADBB2484685
:10448000D2B200F0CDF83046FFF7F4FE80B9014615
:104490002046FFF73BFF3046FFF7ECFE0028F6D042
:1044A0002846FFF7E7FE40B901212046FFF72EFF1F
:1044B0002846FFF7DFFE0028F6D0013F3FB2002F6D
:1044C000C1DCBDE8F883002BE5DB99F800108842D9
:1044D000E1DA0028B6BF4FF0000C9C466346614508
:1044E000D8BF0BB2C1B25B1ADBB2D2B2484600F001
:1044F00097F8D0E74383BDE8F883678B013F3FB26D
:104500006783002F90D16EE73046FFF7B3FE284651
:10451000FFF7B0FE97E700BFB9420008C9420008A4
:1045200070B40325094CBDF90C606280A380BDF90D
:104530001020BDF914302180E680014622812046FA
:104540006381257670BCFFF725BF00BFE80D002012
:104550002DE9F043072B83B01E460746904618D935
:10456000A3F1080525F0070501F1080425444FF0E3
:10457000FF09EDB201E001F10804CDF8009000233D
:1045800042463846FFF78AFCE1B2A942F3D106F071
:10459000070676B1FF2286F00703013303F0070315
:1045A00002FA03F3DBB20093424638460023FFF7DA
:1045B00075FC03B0BDE8F0832DE9F043072B83B011
:1045C0001E460746884618D9A3F1080525F00705B9
:1045D00002F1080425444FF0FF09EDB201E002F1B9
:1045E0000804CDF80090012341463846FFF756FCF9
:1045F000E2B2AA42F3D106F0070676B1FF2186F0B7
:104600000703013303F0070301FA03F3DBB200935E
:10461000414638460123FFF741FC03B0BDE8F08373
:10462000F0B5012483B000940D46044616461F469B
:10463000FEF7A4FE08B903B0F0BD3B46324629465A
:10464000204603B0BDE8F040FFF782BFF0B51C463E
:1046500083B00123009405460E461746FEF78EFEF2
:1046600008B903B0F0BD23463A463146284603B0A8
:10467000BDE8F040FFF7A0BF2DE9F04114468046A9
:104680000F461E469DF818501544EDB222460134DF
:10469000334639464046E4B2FFF75AFFAC42F5D103
:1046A000BDE8F0812DE9F04182B09DF8204005463B
:1046B00000940E4617469846FEF760FE10B902B009
:1046C000BDE8F08143463A4631462846089402B098
:1046D000BDE8F041FFF7D0BF002070472DE9F04161
:1046E000A2F11707904605461C464E68302F00F28F
:1046F0008F80DFE807F0208D8D8D8D8D8D8D8D8DD8
:104700008D8D8D8D8D8D8D8D8D8D8D4F688D8D8D3C
:104710008D4F8D8D8D8D8D8D8D8D688D8D8D8D8D2C
:104720008D8D8D8D8D8619003146FFF737FB2070FA
:104730000120BDE8F081234617223146FFF7CCFA6D
:1047400031462846FFF71EFB94F8028031466FEA97
:10475000080880442846FFF715FB27783146FF43B9
:1047600007442846FFF71AFBE3783146DB4303444E
:104770002846DDB2FFF712FB63785FFA88F8DB4367
:10478000FFB21844E07084F80080A77065700120C3
:10479000BDE8F0813146FFF701FB67783146FF4302
:1047A00007442846FFF7EEFA2378FFB2DB431844AC
:1047B000207067704246314623462846FFF78CFA40
:1047C0000120BDE8F0813146FFF7E8FA677831460D
:1047D000FF4307442846FFF7D5FA2278E378D2430F
:1047E00002331044FFB203F003032070E3706770DC
:1047F0004246314628462346FFF76EFA0120BDE8BF
:10480000F0813146FFF7BEFA20700120BDE8F0814B
:1048100023463146BDE8F041FFF75EBA054B4268DA
:104820009A4218BF5A60044A18BF43601A60FFF7E3
:10483000C1BA00BF40010020DD4600082DE9F04F5D
:10484000A2F1170583B006461C464F68302D00F2D2
:10485000C180DFE805F022BFBFBFBFBFBFBFBFBF82
:10486000BFBFBFBFBFBFBFBFBFBFBFBFBFBFBFBF58
:10487000BF37BFBFBFBFBFBFBFBF6DBFBFBFBFBF22
:10488000BFBFBFBFBFB619003946FFF787FA400860
:104890002070012003B0BDE8F08F3946234617226F
:1048A000FFF71AFA2078A17840082070012062787A
:1048B000E378490852085B08A1706270E37003B0A6
:1048C000BDE8F08F94F8008065784FEA48086D00E5
:1048D0005FFA88F8EDB265702346394684F80080A7
:1048E000322208F10109FFF7F7F95FFA89F96570DB
:1048F000013523463946EDB284F800903222304625
:10490000FFF7EAF92346394684F8009065703222B1
:104910003046FFF7E1F9657084F800802346394698
:1049200030463222FFF7D8F9012003B0BDE8F08FFE
:1049300008230025A27894F803A0AD0012F0800FA0
:1049400003F1FF33ADB24FEA420118BF45F0030552
:1049500013F0FF03CAB2F0D194F8009094F80180EC
:104960004FEA49094FEA48081AF0010F5FFA89F93E
:104970005FFA88F859D009F1010B5FFA8BFBCDF88B
:1049800004802B0AA3703B222346394684F800900A
:1049900084F801803046FFF79FF9019B84F800B04E
:1049A000637084F803A023463B2239463046FFF764
:1049B00093F9A570BAF1030F1BD8DFE80AF04E4552
:1049C0003C123946FFF7DEF940082070012003B0A1
:1049D000BDE8F08F2346394603B0BDE8F04FFFF73E
:1049E0007BB9019BA8F10808083BDBB25FFA88F8A5
:1049F00001932346394684F8009084F8018084F8B6
:104A000003A03B223046FFF767F9019B84F800B012
:104A1000637084F803A02346394630463B22FFF7F3
:104A20005BF9012003B0BDE8F08F08F10103DBB2B0
:104A3000CB460193A5E7A9F10809ABF1080B5FFA92
:104A400089F95FFA8BFBD4E7019B08F1080808336A
:104A5000DBB25FFA88F80193CBE709F108090BF1A3
:104A6000080B5FFA89F95FFA8BFBC2E704494268D9
:104A70008A4200D0704752684260FFF79BB900BF7E
:104A80004C010020054B42689A4218BF5A60044A04
:104A900018BF43601A60FFF78DB900BF4C010020BA
:104AA0003D480008704700BF10B500F0B3F900B9E9
:104AB00010BD8E234FF48E72054CA02062622364D9
:104AC000FCF7EEFA4FF6FF736362236410BD00BF7C
:104AD00000080040F8B500F09DF900B9F8BD4FF4AA
:104AE0008E778E264FF6FF75094CA02067622664EC
:104AF000FCF7D6FA656264202564FCF7D1FA676298
:104B0000A0202664FCF7CCFA65622564F8BD00BFDE
:104B10000008004010B500F07DF900B910BD40F26A
:104B20008C5340F61832064C4FF496706262236440
:104B3000FCF7B6FA4FF6FF736362236410BD00BF43
:104B40000008004070B500F065F900B970BD4FF481
:104B50008E728E234FF6FF75114CA0206262236483
:104B6000FCF79EFA656232202564FCF799FA40F260
:104B70008C5640F618333C2063622664FCF790FAAA
:104B8000656232202564FCF78BFA40F2C623666228
:104B9000A0202364FCF784FA6562256470BD00BF21
:104BA0000008004010B50446084602F0C5FAD8B126
:104BB00003784E2B0FD023460E4A01461068127917
:104BC000206003F8042F1846052205F0C5F80023DD
:104BD0006372204610BD01460522204605F0BCF850
:104BE00000232371204610BD034B03CB206061607E
:104BF000204610BD40AE000848AE000838B5194C3C
:104C000023686BB313F81010FF291BD0201D01F08F
:104C100077FEB8B9237B9B070BD5E388A2889A421D
:104C200007D22289934204D26389934201D9012099
:104C300038BD192101200C4A0C4BA1742073C4E922
:104C4000012338BD19250121094B074A1868074B74
:104C5000C4F80D00A5742173C4E90123002038BDF8
:104C6000184638BDBC0A0020A802C4030A05400645
:104C70004CAE000810B5074C0120E16902F0F4F8D1
:104C8000216A022002F0F0F8616A0320BDE81040BA
:104C900002F0EAB8BC0A002008B540F29C410120AD
:104CA00002F0E2F80321022002F0DEF8BDE808403D
:104CB00040F2C341032002F0D7B800BF2DE9F04114
:104CC00084B001F04BFD02F035FA400004F054FFCF
:104CD000494D06462860F8B10024FF2701E026F878
:104CE000137002F027FAE3B2834204F10104F6D311
:104CF0000024A04601F08EFD8442E7B207DA39466F
:104D0000684601F0FDFD002845D0012857D15FFA23
:104D100088F6003618BF0126384801F07DFD0028CE
:104D20004FD11C234FF45D6740F67464EB210122E0
:104D3000C5E90773C5E90941314B85F832002A8678
:104D4000EB6295F82A4002F0F5F9844284BF002313
:104D500085F82A3095F831302A4C502B84BF5023E7
:104D600085F8313095F83230B42B84BFB42385F800
:104D70003230FFF77FFF95F82A00A4F12005FFF7F6
:104D80003DFF0FCD0FC495E80F0084E80F003046BB
:104D900004B0BDE8F0810DF1090002F0D7F9002858
:104DA0000DDB9DF8083006EB400243B116F81010F9
:104DB000FF2904D106F8107008F10108537001347E
:104DC00098E795F82F30288D83B900B204F0DAFB0C
:104DD000B0F5E17FC4BF40F2C7132B8595F82B30A7
:104DE0001E2B84BF1E2385F82B30AAE7B0F5E17F88
:104DF000F4D9EB232B85F1E7BC0A0020D00A002070
:104E000000000501F00A0020014B93F82F007047C5
:104E1000BC0A0020014B93F830007047BC0A002008
:104E2000014B188D704700BFBC0A0020014B93F85E
:104E30002A007047BC0A0020014B93F82B007047F2
:104E4000BC0A0020014B988D704700BFBC0A0020AF
:104E5000014B93F82E007047BC0A0020024B187BD0
:104E600000F00200704700BFBC0A0020014B93F81D
:104E700031007047BC0A0020014B93F832007047A4
:104E8000BC0A0020014B1885704700BFBC0A0020F7
:104E9000F0B51F4D83B0AF8895F912408742A1EB62
:104EA000040422D8E988814214D82A8904F5A5731C
:104EB000824223D9009304F5827304F003FB00B20D
:104EC00095F82F3020EAE0700BB904F04DFB80B26A
:104ED00003B0F0BD04F582730A460093394604F12D
:104EE000C80304F0EFFA00B2EAE7C8340B460094B6
:104EF0003A46002104F0E6FA00B2E1E76E8904F5D3
:104F0000C87411460094324604F0DCFA00B2D7E7C8
:104F1000BC0A00202DE9F0433A4D83B095F91220E8
:104F200095F82F308A1A92B202F1C80702F5C872BA
:104F300089460646BFB294B2002B4AD0B0F5E17F55
:104F400028BF4FF4E176B42E38BFB4266889AB8809
:104F5000224639460090304604F0B4FA40F23A73E3
:104F600082B29A421046CABF6FF4677300F29D3056
:104F7000C01884B2142540F67468002707E0A242E6
:104F80001FD027461446013D15F0FF0515D04946B0
:104F90002046FFF77DFF08EB04023B198642C2F36F
:104FA0004F02C3F34F0308D0E9D8A3420DD0013D0F
:104FB00015F0FF05A0461C46E9D1204603B0BDE828
:104FC000F083631C27469CB2DDE7631EA0469CB2BB
:104FD000D9E738B204F0C8FA87B220B204F0C4FAB4
:104FE00084B2B42004F0C0FA83B29E424FF4E17060
:104FF00038BF1E4604F0B8FA80B2864228BF064683
:10500000A4E700BFBC0A002070B5114C82B094F830
:105010002F3006460D46B3B1C8280DD894F912209A
:10502000A388AA1AC832009392B2A9B2002304F04E
:1050300049FA80B202B070BD2946304602B0BDE8E0
:105040007040FFF767BF00B204F09CFA80B2E3E75C
:10505000BC0A00200A4B9A88824201D8002070477F
:10506000C82310B582B00C4600930B46002104F013
:1050700029FA211D8142B4BF0020012002B010BDD9
:10508000BC0A0020024890F82A105430FFF78ABD6D
:10509000BC0A002038B51C4BB3F848101A8D914259
:1050A0000CD01A4C1A48A4F1200501F0EDFB0FCDED
:1050B0000FC495E80F0084E80F0038BD93F84A103C
:1050C00093F82A209142ECD193F84B1093F82B20BF
:1050D0009142E6D193F84F1093F82F209142E0D1FE
:1050E00093F8501093F830209142DAD193F8511090
:1050F00093F831209142D4D193F8522093F8323072
:105100009A42CED138BD00BFBC0A0020F00A002070
:10511000D00A002010B50446FFF770FD00B910BD9D
:10512000034B83F82A40BDE81040FFF7B3BF00BF30
:10513000BC0A002030B4064C04F1340514340FCD01
:105140000FC495E80F0084E80F0030BC704700BF23
:10515000BC0A0020034BD86103F11400C3E9081214
:1051600001F092BBBC0A002010B1002908BF0A213F
:10517000024B83F8310083F832107047BC0A0020DC
:10518000044B9A880280DA8842801A8982805B897F
:10519000C3807047BC0A002070B440F674640325D5
:1051A000074B42880688DA80C2889E808688A242A1
:1051B00099741D731E815A8188BF5C8170BC7047D1
:1051C000BC0A0020F0B51D4E85B08DF80E300B885E
:1051D0003468ADF80030B1F802C08F88CB8804EB9A
:1051E00040048DF80820ADF802C0ADF80470ADF8A9
:1051F00006306270054601F09FFFE0B1BDF8023055
:10520000BDF800209A4216D2BDF80420934212D273
:10521000BDF8063093420ED9014605220DF1090072
:1052200004F09AFD3368684613F8151001F098FBF6
:1052300008B9FFF739FC05B0F0BD00BFBC0A00207B
:105240001920034B0349044A9874C3E901127047BB
:10525000BC0A0020A802C4030A0540062DE9F04359
:10526000304E85B0336863B113F810408046FF2C90
:105270004FEA400908D06846214601F041FB00286A
:105280003DD005B0BDE8F083002701F0C3FAFDB2C0
:105290008542F6D2002404E0326812F81330AB42A3
:1052A0002BD001F047FFE3B2834204F10104F3D3B2
:1052B000FF2DE6D0404601F03FFF0028E1D0014637
:1052C00005220DF1090004F047FD01231921164ABA
:1052D0008DF80830154B8DF80E1068462946CDE93B
:1052E000002301F03DFB0028CBD1336803F81850B0
:1052F0009DF808204B445A70C3E70137C5E79DF875
:105300000830214683F0010368468DF8083001F02B
:1053100027FB0028B5D133689DF80820994489F807
:105320000120AEE7BC0A0020A802C4030A0540061B
:105330002DE9F843DFF8E4800446D8F800000E4673
:105340001746002859D09946611E9CB100EB4103D5
:105350005A78B9F1000F48D0D50758BF00EB440385
:1053600005D542E013F8032C023BD0073DD411F1E0
:10537000FF31F7D2002516E0D8F8003003EB4403E4
:105380005B78B9F1000F02D013F0010F09D001359D
:1053900006F82140EDB221465370FFF703FCBD42F1
:1053A00020D20134E4B201F0C5FE05EB450106EB65
:1053B0008102844202F10200DED3BD4212D20020FB
:1053C0007B1E5B1BDBB22B4403EB430206F10C019B
:1053D00005EB450301EB820206EB830398700C3367
:1053E0009342FBD12846BDE8F883C9B23170727090
:1053F000B01CFFF7D7FB0125D5E762B10B46013A98
:10540000D2B202EB420701F10C0202EB8702987064
:105410000C339A42FBD10020BDE8F883BC0A00207F
:1054200070B59DF81040052C38BF052425460D4C5D
:1054300094F82F6084F82E50964284F82B0084F85C
:105440003010A38508D01546B4F928002AB904F015
:105450008BF8208584F82F5070BD04F093F82085D8
:10546000F8E700BFBC0A002010B44FF48271C824D2
:105470004FF4A5724FF4C873048041808280C380CA
:1054800010BC7047F8B5EB2501F0B2FA40F6746035
:10549000012100224FF45D671C26084B084C58621E
:1054A000C3E90A54198683F83220C3E9077603F169
:1054B0001400BDE8F84001F0E7B900BFBC0A0020C5
:1054C00000000501014B1860704700BF1C0B002055
:1054D0000022024B5A755A73704700BF1C0B002004
:1054E00040F2E733984228BF1846014BD8807047F6
:1054F0001C0B00206FF008039842B8BF18466328C1
:10550000A8BF6320014B1881704700BF1C0B00200F
:10551000642828BF6420014B987270471C0B002040
:1055200040F2E733984228BF1846024B9880D97260
:10553000704700BF1C0B002010B5054C072204F17A
:105540000D00044904F008FC0023237510BD00BFC2
:105550001C0B002050AE000810B5054C072204F1CA
:105560000D00044904F0F8FB0023237510BD00BFB3
:105570001C0B002054AE000810B5054C072204F1A6
:105580000D00044904F0E8FB0023237510BD00BFA3
:105590001C0B002058AE000810B5054C072204F182
:1055A0000D00044904F0D8FB0023237510BD00BF93
:1055B0001C0B002060AE000810B5054C072204F15A
:1055C0000D00044904F0C8FB0023237510BD00BF83
:1055D0001C0B002068AE000810B5054C072204F132
:1055E0000D00044904F0B8FB0023237510BD00BF73
:1055F0001C0B002070AE000810B5054C072204F10A
:105600000D00044904F0A8FB0023237510BD00BF62
:105610001C0B002078AE000802460249024804F044
:1056200069BB00BF80AE0008290B002038B5064CCE
:105630000D460922014604F1150004F08DFB0023FC
:105640002573A37738BD00BF1C0B00202DE9F04F58
:10565000824C8DB0E37A002B00F0F0804322804B27
:105660001A70A2887F490AA804F044FBE2887D49A9
:105670000BA804F03FFBB4F908207B4909A804F00B
:1056800039FB5623A2880093B4F90810E088002360
:1056900003F018FFC0B2752828BF752094F80AB02F
:1056A0000490BBF10A0F00F2CD802068FEF7D8FB12
:1056B000049B4FEA9B019A1C6C480333C1F17A01A9
:1056C000D2B2DBB24FF0050A694FDFF8949100F1D6
:1056D000100807910592069353E02068BBF1000F74
:1056E00040F09C8009A9FEF771FAC0F16C01C9B2C3
:1056F00009AB40222068FEF715FA20680123342206
:105700006C21CDE900A8FDF7FFFD40224B46742136
:105710002068FEF707FA574B20680BA98360FEF755
:1057200055FA0325C0F1810000EBD070C0F34701AA
:105730000BAB2A222068FEF7F5F9762333220521E8
:105740002068FEF76DFF2068049B3022052100953C
:10575000FEF7A8FF2B46302205992068FEF760FF70
:1057600002232F2206992068FEF75AFF206806239D
:105770002F225B21FEF76AFF2068FEF775FB0028E9
:1057800059D001230F2620683B491A4681603749CA
:10579000CDE900610021FDF7B7FD0AA92068FEF7F9
:1057A00015FA0AAB054631460C222068FEF7BAF915
:1057B000012305F110011A462068C9B2CDE900A8FD
:1057C000FDF7A2FD05F118014B460C22C9B2206875
:1057D000FEF7A8F939462068FEF7F8F9C0F17B0119
:1057E000C9B23B460C222068FEF79CF90C21234BE2
:1057F00040222068FEF796F9217B00297FF46DAFE7
:1058000009231F4A2068CDE9003201233722FDF722
:105810007BFD2068BBF1000F3FF464AF7B23079949
:10582000CBF12D0201910292009219462D22FEF732
:1058300077FE206856E70DB0BDE8F08F4622084B92
:105840001A700EE71E23ABF10A0000935A220A23B6
:10585000002103F037FE5FFA80FB26E71C0B0020D7
:105860005801002084AE000880AE000870AD00082A
:10587000290B0020B8A4000804A80008310B002060
:1058800088AD0008914228BF11462DE9F04F8046AF
:105890000D4640F6FF7764211C4600238BB0474538
:1058A000009128461946914628BF474603F00AFE54
:1058B0002523C2B27E4908A804F01CFA46227D4B7B
:1058C000ADF818205B6A079334B1432243F2345396
:1058D0008DF81820ADF81C30774C784B206808A95B
:1058E0008360FEF773F9642D00F105005FFA80FA1A
:1058F00000F2C9800A220123009200216422284676
:1059000003F0E0FD042200230092C6B219462846A7
:10591000642203F0D7FD5FFA80FBB8F5006F00F258
:10592000A680142200230092384619464FF40062E4
:1059300003F0C8FDC5B270221423009240F60101A5
:1059400040F6FF724FF4616003F0BCFD00F1080304
:10595000DBB220680593FEF783FACAF1800ADFF80C
:105960006C81574F0536CBF1230B5FFA8AF9394624
:105970002068FEF72BF94FF0230AC0F1800000EBFE
:10598000D070C0F347013B460F222068FEF7CAF8EB
:105990002068524633460521CDE9016BCDF800A0C1
:1059A000FEF7BEFD08AB524649462068FEF7BAF83E
:1059B0000A2320682822CDE9003800210123FDF7C1
:1059C000A3FC06233F4A20687821CDE90032012359
:1059D0002A22FDF799FC70232A2208212068FEF76D
:1059E0001FFE70232F2208212068FEF719FE0423D2
:1059F0002F2205992068FEF729FE2B462C2208212C
:105A00002068FEF70DFE012D0CD92B462B22082114
:105A10002068FEF705FE6B1EDBB22D2208212068F0
:105A2000FEF7FEFD07A92068FEF7D0F8264B824658
:105A30002068019305233422009370210123FDF790
:105A400063FCCAF17001C9B207AB40222068FEF7BF
:105A500069F806AB402278212068FEF763F82068D9
:105A6000FEF702FA002882D10BB0BDE8F08F702358
:105A70003846009340F6FF72142340F6010103F00C
:105A800021FDC5B257E7CAF1760300934A460A23BF
:105A90006521284603F016FD1423C6B200934A463A
:105AA00028460423652103F00DFD5FFA80FB34E7EF
:105AB00088AE000870AD00081C0B002004A8000888
:105AC00090AE0008A4AD000880AD000898AD0008B5
:105AD0000022024BA3F870211A6270471C0B0020B1
